{
  "contractName": "DeFiProject",
  "abi": [
    {
      "inputs": [
        {
          "internalType": "address",
          "name": "_comptroller",
          "type": "address"
        },
        {
          "internalType": "address",
          "name": "_oracle",
          "type": "address"
        }
      ],
      "stateMutability": "nonpayable",
      "type": "constructor"
    },
    {
      "inputs": [],
      "name": "comptroller",
      "outputs": [
        {
          "internalType": "contract ComptrollerInterface",
          "name": "",
          "type": "address"
        }
      ],
      "stateMutability": "view",
      "type": "function",
      "constant": true
    },
    {
      "inputs": [],
      "name": "priceOracle",
      "outputs": [
        {
          "internalType": "contract PriceOracleInterface",
          "name": "",
          "type": "address"
        }
      ],
      "stateMutability": "view",
      "type": "function",
      "constant": true
    },
    {
      "inputs": [
        {
          "internalType": "address",
          "name": "cTokenAddress",
          "type": "address"
        },
        {
          "internalType": "uint256",
          "name": "underlyingAmount",
          "type": "uint256"
        }
      ],
      "name": "supply",
      "outputs": [],
      "stateMutability": "nonpayable",
      "type": "function"
    },
    {
      "inputs": [
        {
          "internalType": "address",
          "name": "cTokenAddress",
          "type": "address"
        },
        {
          "internalType": "uint256",
          "name": "cTokenAmount",
          "type": "uint256"
        }
      ],
      "name": "redeem",
      "outputs": [],
      "stateMutability": "nonpayable",
      "type": "function"
    },
    {
      "inputs": [
        {
          "internalType": "address",
          "name": "cTokenAddress",
          "type": "address"
        }
      ],
      "name": "enterMarket",
      "outputs": [],
      "stateMutability": "nonpayable",
      "type": "function"
    },
    {
      "inputs": [
        {
          "internalType": "address",
          "name": "cTokenAddress",
          "type": "address"
        },
        {
          "internalType": "uint256",
          "name": "borrowAmount",
          "type": "uint256"
        }
      ],
      "name": "borrow",
      "outputs": [],
      "stateMutability": "nonpayable",
      "type": "function"
    },
    {
      "inputs": [
        {
          "internalType": "address",
          "name": "cTokenAddress",
          "type": "address"
        },
        {
          "internalType": "uint256",
          "name": "underlyingAmount",
          "type": "uint256"
        }
      ],
      "name": "repayBorrow",
      "outputs": [],
      "stateMutability": "nonpayable",
      "type": "function"
    },
    {
      "inputs": [
        {
          "internalType": "address",
          "name": "cTokenAddress",
          "type": "address"
        }
      ],
      "name": "getMaxBorrow",
      "outputs": [
        {
          "internalType": "uint256",
          "name": "",
          "type": "uint256"
        }
      ],
      "stateMutability": "view",
      "type": "function",
      "constant": true
    }
  ],
  "bytecode": "0x60806040523480156200001157600080fd5b506040516200183e3803806200183e83398181016040528101906200003791906200012a565b816000806101000a81548173ffffffffffffffffffffffffffffffffffffffff021916908373ffffffffffffffffffffffffffffffffffffffff16021790555080600160006101000a81548173ffffffffffffffffffffffffffffffffffffffff021916908373ffffffffffffffffffffffffffffffffffffffff160217905550505062000171565b600080fd5b600073ffffffffffffffffffffffffffffffffffffffff82169050919050565b6000620000f282620000c5565b9050919050565b6200010481620000e5565b81146200011057600080fd5b50565b6000815190506200012481620000f9565b92915050565b60008060408385031215620001445762000143620000c0565b5b6000620001548582860162000113565b9250506020620001678582860162000113565b9150509250929050565b6116bd80620001816000396000f3fe608060405234801561001057600080fd5b50600436106100885760003560e01c80635fe3b5671161005b5780635fe3b567146100ff578063abdb5ea81461011d578063f2b9fdb814610139578063fd1c317a1461015557610088565b80631e9a69501461008d5780632630c12f146100a95780633fe5d425146100c75780634b8a3529146100e3575b600080fd5b6100a760048036038101906100a29190610b61565b610185565b005b6100b1610253565b6040516100be9190610c00565b60405180910390f35b6100e160048036038101906100dc9190610c1b565b610279565b005b6100fd60048036038101906100f89190610b61565b61041f565b005b6101076104ed565b6040516101149190610c69565b60405180910390f35b61013760048036038101906101329190610b61565b610511565b005b610153600480360381019061014e9190610b61565b6106d2565b005b61016f600480360381019061016a9190610c1b565b610893565b60405161017c9190610c93565b60405180910390f35b600082905060008173ffffffffffffffffffffffffffffffffffffffff1663db006a75846040518263ffffffff1660e01b81526004016101c59190610c93565b6020604051808303816000875af11580156101e4573d6000803e3d6000fd5b505050506040513d601f19601f820116820180604052508101906102089190610cc3565b90506000811461024d576040517f08c379a000000000000000000000000000000000000000000000000000000000815260040161024490610d99565b60405180910390fd5b50505050565b600160009054906101000a900473ffffffffffffffffffffffffffffffffffffffff1681565b6000600167ffffffffffffffff81111561029657610295610db9565b5b6040519080825280602002602001820160405280156102c45781602001602082028036833780820191505090505b50905081816000815181106102dc576102db610de8565b5b602002602001019073ffffffffffffffffffffffffffffffffffffffff16908173ffffffffffffffffffffffffffffffffffffffff168152505060008060009054906101000a900473ffffffffffffffffffffffffffffffffffffffff1673ffffffffffffffffffffffffffffffffffffffff1663c2998238836040518263ffffffff1660e01b81526004016103729190610ed5565b6000604051808303816000875af1158015610391573d6000803e3d6000fd5b505050506040513d6000823e3d601f19601f820116820180604052508101906103ba9190611021565b90506000816000815181106103d2576103d1610de8565b5b60200260200101511461041a576040517f08c379a000000000000000000000000000000000000000000000000000000000815260040161041190611102565b60405180910390fd5b505050565b600082905060008173ffffffffffffffffffffffffffffffffffffffff1663c5ebeaec846040518263ffffffff1660e01b815260040161045f9190610c93565b6020604051808303816000875af115801561047e573d6000803e3d6000fd5b505050506040513d601f19601f820116820180604052508101906104a29190610cc3565b9050600081146104e7576040517f08c379a00000000000000000000000000000000000000000000000000000000081526004016104de906111ba565b60405180910390fd5b50505050565b60008054906101000a900473ffffffffffffffffffffffffffffffffffffffff1681565b600082905060008173ffffffffffffffffffffffffffffffffffffffff16636f307dc36040518163ffffffff1660e01b8152600401602060405180830381865afa158015610563573d6000803e3d6000fd5b505050506040513d601f19601f8201168201806040525081019061058791906111ef565b90508073ffffffffffffffffffffffffffffffffffffffff1663095ea7b385856040518363ffffffff1660e01b81526004016105c492919061122b565b6020604051808303816000875af11580156105e3573d6000803e3d6000fd5b505050506040513d601f19601f82011682018060405250810190610607919061128c565b5060008273ffffffffffffffffffffffffffffffffffffffff16630e752702856040518263ffffffff1660e01b81526004016106439190610c93565b6020604051808303816000875af1158015610662573d6000803e3d6000fd5b505050506040513d601f19601f820116820180604052508101906106869190610cc3565b9050600081146106cb576040517f08c379a00000000000000000000000000000000000000000000000000000000081526004016106c290611351565b60405180910390fd5b5050505050565b600082905060008173ffffffffffffffffffffffffffffffffffffffff16636f307dc36040518163ffffffff1660e01b8152600401602060405180830381865afa158015610724573d6000803e3d6000fd5b505050506040513d601f19601f8201168201806040525081019061074891906111ef565b90508073ffffffffffffffffffffffffffffffffffffffff1663095ea7b385856040518363ffffffff1660e01b815260040161078592919061122b565b6020604051808303816000875af11580156107a4573d6000803e3d6000fd5b505050506040513d601f19601f820116820180604052508101906107c8919061128c565b5060008273ffffffffffffffffffffffffffffffffffffffff1663a0712d68856040518263ffffffff1660e01b81526004016108049190610c93565b6020604051808303816000875af1158015610823573d6000803e3d6000fd5b505050506040513d601f19601f820116820180604052508101906108479190610cc3565b90506000811461088c576040517f08c379a000000000000000000000000000000000000000000000000000000000815260040161088390611409565b60405180910390fd5b5050505050565b60008060008060008054906101000a900473ffffffffffffffffffffffffffffffffffffffff1673ffffffffffffffffffffffffffffffffffffffff16635ec88c79866040518263ffffffff1660e01b81526004016108f29190611429565b606060405180830381865afa15801561090f573d6000803e3d6000fd5b505050506040513d601f19601f820116820180604052508101906109339190611444565b9250925092506000831461097c576040517f08c379a00000000000000000000000000000000000000000000000000000000081526004016109739061152f565b60405180910390fd5b600082116109bf576040517f08c379a00000000000000000000000000000000000000000000000000000000081526004016109b69061159b565b60405180910390fd5b60008114610a02576040517f08c379a00000000000000000000000000000000000000000000000000000000081526004016109f990611607565b60405180910390fd5b6000600160009054906101000a900473ffffffffffffffffffffffffffffffffffffffff1673ffffffffffffffffffffffffffffffffffffffff1663fc57d4df876040518263ffffffff1660e01b8152600401610a5f9190611429565b602060405180830381865afa158015610a7c573d6000803e3d6000fd5b505050506040513d601f19601f82011682018060405250810190610aa09190610cc3565b90508083610aae9190611656565b945050505050919050565b6000604051905090565b600080fd5b600080fd5b600073ffffffffffffffffffffffffffffffffffffffff82169050919050565b6000610af882610acd565b9050919050565b610b0881610aed565b8114610b1357600080fd5b50565b600081359050610b2581610aff565b92915050565b6000819050919050565b610b3e81610b2b565b8114610b4957600080fd5b50565b600081359050610b5b81610b35565b92915050565b60008060408385031215610b7857610b77610ac3565b5b6000610b8685828601610b16565b9250506020610b9785828601610b4c565b9150509250929050565b6000819050919050565b6000610bc6610bc1610bbc84610acd565b610ba1565b610acd565b9050919050565b6000610bd882610bab565b9050919050565b6000610bea82610bcd565b9050919050565b610bfa81610bdf565b82525050565b6000602082019050610c156000830184610bf1565b92915050565b600060208284031215610c3157610c30610ac3565b5b6000610c3f84828501610b16565b91505092915050565b6000610c5382610bcd565b9050919050565b610c6381610c48565b82525050565b6000602082019050610c7e6000830184610c5a565b92915050565b610c8d81610b2b565b82525050565b6000602082019050610ca86000830184610c84565b92915050565b600081519050610cbd81610b35565b92915050565b600060208284031215610cd957610cd8610ac3565b5b6000610ce784828501610cae565b91505092915050565b600082825260208201905092915050565b7f63546f6b656e2e72656465656d2829206661696c65642e2053656520436f6d7060008201527f6f756e64204572726f725265706f727465722e736f6c20666f72206d6f72652060208201527f64657461696c7300000000000000000000000000000000000000000000000000604082015250565b6000610d83604783610cf0565b9150610d8e82610d01565b606082019050919050565b60006020820190508181036000830152610db281610d76565b9050919050565b7f4e487b7100000000000000000000000000000000000000000000000000000000600052604160045260246000fd5b7f4e487b7100000000000000000000000000000000000000000000000000000000600052603260045260246000fd5b600081519050919050565b600082825260208201905092915050565b6000819050602082019050919050565b610e4c81610aed565b82525050565b6000610e5e8383610e43565b60208301905092915050565b6000602082019050919050565b6000610e8282610e17565b610e8c8185610e22565b9350610e9783610e33565b8060005b83811015610ec8578151610eaf8882610e52565b9750610eba83610e6a565b925050600181019050610e9b565b5085935050505092915050565b60006020820190508181036000830152610eef8184610e77565b905092915050565b600080fd5b6000601f19601f8301169050919050565b610f1682610efc565b810181811067ffffffffffffffff82111715610f3557610f34610db9565b5b80604052505050565b6000610f48610ab9565b9050610f548282610f0d565b919050565b600067ffffffffffffffff821115610f7457610f73610db9565b5b602082029050602081019050919050565b600080fd5b6000610f9d610f9884610f59565b610f3e565b90508083825260208201905060208402830185811115610fc057610fbf610f85565b5b835b81811015610fe95780610fd58882610cae565b845260208401935050602081019050610fc2565b5050509392505050565b600082601f83011261100857611007610ef7565b5b8151611018848260208601610f8a565b91505092915050565b60006020828403121561103757611036610ac3565b5b600082015167ffffffffffffffff81111561105557611054610ac8565b5b61106184828501610ff3565b91505092915050565b7f636f6d7074726f6c6c65722e656e7465724d61726b6574732829206661696c6560008201527f642e2053656520436f6d706f756e64204572726f725265706f727465722e736f60208201527f6c20666f72206d6f72652064657461696c730000000000000000000000000000604082015250565b60006110ec605283610cf0565b91506110f78261106a565b606082019050919050565b6000602082019050818103600083015261111b816110df565b9050919050565b7f63546f6b656e2e626f72726f772829206661696c65642e2053656520436f6d7060008201527f6f756e64204572726f725265706f727465722e736f6c20666f72206d6f72652060208201527f64657461696c7300000000000000000000000000000000000000000000000000604082015250565b60006111a4604783610cf0565b91506111af82611122565b606082019050919050565b600060208201905081810360008301526111d381611197565b9050919050565b6000815190506111e981610aff565b92915050565b60006020828403121561120557611204610ac3565b5b6000611213848285016111da565b91505092915050565b61122581610aed565b82525050565b6000604082019050611240600083018561121c565b61124d6020830184610c84565b9392505050565b60008115159050919050565b61126981611254565b811461127457600080fd5b50565b60008151905061128681611260565b92915050565b6000602082840312156112a2576112a1610ac3565b5b60006112b084828501611277565b91505092915050565b7f63546f6b656e2e7265706179426f72726f772829206661696c65642e2053656560008201527f20436f6d706f756e64204572726f725265706f727465722e736f6c20666f722060208201527f6d6f72652064657461696c730000000000000000000000000000000000000000604082015250565b600061133b604c83610cf0565b9150611346826112b9565b606082019050919050565b6000602082019050818103600083015261136a8161132e565b9050919050565b7f63546f6b656e2e6d696e742829206661696c65642e2053656520436f6d706f7560008201527f6e64204572726f725265706f727465722e736f6c20666f72206d6f726520646560208201527f7461696c73000000000000000000000000000000000000000000000000000000604082015250565b60006113f3604583610cf0565b91506113fe82611371565b606082019050919050565b60006020820190508181036000830152611422816113e6565b9050919050565b600060208201905061143e600083018461121c565b92915050565b60008060006060848603121561145d5761145c610ac3565b5b600061146b86828701610cae565b935050602061147c86828701610cae565b925050604061148d86828701610cae565b9150509250925092565b7f636f6d7074726f6c6c65722e6765744163636f756e744c69717569646974792860008201527f29206661696c65642e2053656520436f6d706f756e64204572726f725265706f60208201527f727465722e736f6c20666f72206d6f72652064657461696c7300000000000000604082015250565b6000611519605983610cf0565b915061152482611497565b606082019050919050565b600060208201905081810360008301526115488161150c565b9050919050565b7f6163636f756e7420646f6573206e6f74206861766520636f6c6c61746572616c600082015250565b6000611585602083610cf0565b91506115908261154f565b602082019050919050565b600060208201905081810360008301526115b481611578565b9050919050565b7f6163636f756e7420756e64657220776174657200000000000000000000000000600082015250565b60006115f1601383610cf0565b91506115fc826115bb565b602082019050919050565b60006020820190508181036000830152611620816115e4565b9050919050565b7f4e487b7100000000000000000000000000000000000000000000000000000000600052601260045260246000fd5b600061166182610b2b565b915061166c83610b2b565b92508261167c5761167b611627565b5b82820490509291505056fea26469706673582212202227fd9603610e02649af04e02f96a1d095b9c290f97a9254a565bd551196f8e64736f6c634300080c0033",
  "immutableReferences": {},
  "source": "// SPDX-License-Identifier: MIT\npragma solidity ^0.8.1;\n\nimport '@openzeppelin/contracts/token/ERC20/IERC20.sol';\nimport './CTokenInterface.sol';\nimport './ComptrollerInterface.sol';\nimport './PriceOracleInterface.sol';\n\ncontract DeFiProject {\n  ComptrollerInterface public comptroller;\n  PriceOracleInterface public priceOracle;\n\n  constructor(address _comptroller, address _oracle) {\n    comptroller = ComptrollerInterface(_comptroller);\n    priceOracle = PriceOracleInterface(_oracle);\n  }\n\n  function supply(address cTokenAddress, uint underlyingAmount) external {\n    CTokenInterface cToken = CTokenInterface(cTokenAddress);\n    address underlyingTokenAddress = cToken.underlying();\n    IERC20(underlyingTokenAddress).approve(cTokenAddress, underlyingAmount);\n    uint result = cToken.mint(underlyingAmount);\n    require(result == 0, 'cToken.mint() failed. See Compound ErrorReporter.sol for more details');\n  }\n\n  function redeem(address cTokenAddress, uint cTokenAmount) external {\n    CTokenInterface cToken = CTokenInterface(cTokenAddress);\n    uint result = cToken.redeem(cTokenAmount);\n    require(result == 0, 'cToken.redeem() failed. See Compound ErrorReporter.sol for more details');\n  }\n\n  function enterMarket(address cTokenAddress) external {\n    address[] memory markets = new address[](1);\n    markets[0] = cTokenAddress;\n    uint[] memory results = comptroller.enterMarkets(markets);\n    require(results[0] == 0, 'comptroller.enterMarkets() failed. See Compound ErrorReporter.sol for more details');\n  }\n\n  function borrow(address cTokenAddress, uint borrowAmount) external {\n    CTokenInterface cToken = CTokenInterface(cTokenAddress);\n    uint result = cToken.borrow(borrowAmount);\n    require(result == 0, 'cToken.borrow() failed. See Compound ErrorReporter.sol for more details');\n  }\n\n  function repayBorrow(address cTokenAddress, uint underlyingAmount) external {\n    CTokenInterface cToken = CTokenInterface(cTokenAddress);\n    address underlyingTokenAddress = cToken.underlying();\n    IERC20(underlyingTokenAddress).approve(cTokenAddress, underlyingAmount);\n    uint result = cToken.repayBorrow(underlyingAmount);\n    require(result == 0, 'cToken.repayBorrow() failed. See Compound ErrorReporter.sol for more details');\n  }\n\n  function getMaxBorrow(address cTokenAddress) external view returns(uint) {\n    (uint result, uint liquidity, uint shortfall) = comptroller.getAccountLiquidity(cTokenAddress);\n    require(result == 0, 'comptroller.getAccountLiquidity() failed. See Compound ErrorReporter.sol for more details');\n    require(liquidity > 0, 'account does not have collateral');\n    require(shortfall == 0, 'account under water');\n    uint underlyingPrice = priceOracle.getUnderlyingPrice(cTokenAddress);\n    return liquidity / underlyingPrice;\n  }\n}\n",
  "sourcePath": "/home/jsan/projects/compound-intro/contracts/DeFiProject.sol",
  "compiler": {
    "name": "solc",
    "version": "0.8.12+commit.f00d7308.Emscripten.clang"
  },
  "schemaVersion": "3.4.6",
  "updatedAt": "2022-04-16T12:07:42.597Z",
  "networkType": "ethereum",
  "devdoc": {
    "kind": "dev",
    "methods": {},
    "version": 1
  },
  "userdoc": {
    "kind": "user",
    "methods": {},
    "version": 1
  }
}